{"abi":[{"type":"constructor","inputs":[{"name":"_registrationFee","type":"uint256","internalType":"uint256"},{"name":"_firstSalePrice","type":"uint256","internalType":"uint256"},{"name":"_operator","type":"address","internalType":"address"}],"stateMutability":"nonpayable"},{"type":"function","name":"DOMAIN_SEPARATOR","inputs":[],"outputs":[{"name":"","type":"bytes32","internalType":"bytes32"}],"stateMutability":"view"},{"type":"function","name":"banCitizen","inputs":[{"name":"citizen","type":"address","internalType":"address"}],"outputs":[],"stateMutability":"nonpayable"},{"type":"function","name":"buy","inputs":[{"name":"kind","type":"uint8","internalType":"enum Sprawl.AssetKind"},{"name":"id","type":"bytes32","internalType":"bytes32"},{"name":"expectedPrice","type":"uint256","internalType":"uint256"}],"outputs":[],"stateMutability":"payable"},{"type":"function","name":"canBuy","inputs":[{"name":"buyer","type":"address","internalType":"address"},{"name":"kind","type":"uint8","internalType":"enum Sprawl.AssetKind"},{"name":"id","type":"bytes32","internalType":"bytes32"},{"name":"expectedPrice","type":"uint256","internalType":"uint256"}],"outputs":[{"name":"","type":"uint8","internalType":"uint8"}],"stateMutability":"view"},{"type":"function","name":"canList","inputs":[{"name":"seller","type":"address","internalType":"address"},{"name":"kind","type":"uint8","internalType":"enum Sprawl.AssetKind"},{"name":"id","type":"bytes32","internalType":"bytes32"},{"name":"price","type":"uint256","internalType":"uint256"}],"outputs":[{"name":"","type":"uint8","internalType":"uint8"}],"stateMutability":"view"},{"type":"function","name":"cancelOwnershipHandover","inputs":[],"outputs":[],"stateMutability":"payable"},{"type":"function","name":"citizens","inputs":[{"name":"","type":"address","internalType":"address"}],"outputs":[{"name":"name","type":"string","internalType":"string"},{"name":"isRegistered","type":"bool","internalType":"bool"},{"name":"isBanned","type":"bool","internalType":"bool"},{"name":"totalCollected","type":"uint32","internalType":"uint32"},{"name":"registeredAt","type":"uint64","internalType":"uint64"}],"stateMutability":"view"},{"type":"function","name":"clearArc","inputs":[{"name":"key","type":"bytes32","internalType":"bytes32"}],"outputs":[],"stateMutability":"nonpayable"},{"type":"function","name":"clearEntity","inputs":[{"name":"key","type":"bytes32","internalType":"bytes32"}],"outputs":[],"stateMutability":"nonpayable"},{"type":"function","name":"clearLink","inputs":[{"name":"linkId","type":"uint256","internalType":"uint256"}],"outputs":[],"stateMutability":"nonpayable"},{"type":"function","name":"collectArc","inputs":[{"name":"arcId","type":"string","internalType":"string"},{"name":"anchorLinkId","type":"uint256","internalType":"uint256"},{"name":"description","type":"string","internalType":"string"},{"name":"authoredAt","type":"uint64","internalType":"uint64"},{"name":"nonce","type":"uint64","internalType":"uint64"},{"name":"beaconBlock","type":"uint64","internalType":"uint64"},{"name":"author","type":"address","internalType":"address"},{"name":"authorSig","type":"tuple","internalType":"struct Sprawl.Sig","components":[{"name":"r","type":"bytes32","internalType":"bytes32"},{"name":"s","type":"bytes32","internalType":"bytes32"},{"name":"v","type":"uint8","internalType":"uint8"}]},{"name":"operatorSig","type":"tuple","internalType":"struct Sprawl.Sig","components":[{"name":"r","type":"bytes32","internalType":"bytes32"},{"name":"s","type":"bytes32","internalType":"bytes32"},{"name":"v","type":"uint8","internalType":"uint8"}]}],"outputs":[],"stateMutability":"payable"},{"type":"function","name":"collectEntity","inputs":[{"name":"entityId","type":"string","internalType":"string"},{"name":"name","type":"string","internalType":"string"},{"name":"entityType","type":"string","internalType":"string"},{"name":"description","type":"string","internalType":"string"},{"name":"authoredAt","type":"uint64","internalType":"uint64"},{"name":"nonce","type":"uint64","internalType":"uint64"},{"name":"beaconBlock","type":"uint64","internalType":"uint64"},{"name":"author","type":"address","internalType":"address"},{"name":"authorSig","type":"tuple","internalType":"struct Sprawl.Sig","components":[{"name":"r","type":"bytes32","internalType":"bytes32"},{"name":"s","type":"bytes32","internalType":"bytes32"},{"name":"v","type":"uint8","internalType":"uint8"}]},{"name":"operatorSig","type":"tuple","internalType":"struct Sprawl.Sig","components":[{"name":"r","type":"bytes32","internalType":"bytes32"},{"name":"s","type":"bytes32","internalType":"bytes32"},{"name":"v","type":"uint8","internalType":"uint8"}]}],"outputs":[],"stateMutability":"payable"},{"type":"function","name":"collectLink","inputs":[{"name":"linkId","type":"uint256","internalType":"uint256"},{"name":"parentId","type":"uint256","internalType":"uint256"},{"name":"authoredAt","type":"uint64","internalType":"uint64"},{"name":"nonce","type":"uint64","internalType":"uint64"},{"name":"beaconBlock","type":"uint64","internalType":"uint64"},{"name":"isRecap","type":"bool","internalType":"bool"},{"name":"coversFromId","type":"uint256","internalType":"uint256"},{"name":"coversToId","type":"uint256","internalType":"uint256"},{"name":"author","type":"address","internalType":"address"},{"name":"text","type":"bytes","internalType":"bytes"},{"name":"authorSig","type":"tuple","internalType":"struct Sprawl.Sig","components":[{"name":"r","type":"bytes32","internalType":"bytes32"},{"name":"s","type":"bytes32","internalType":"bytes32"},{"name":"v","type":"uint8","internalType":"uint8"}]},{"name":"operatorSig","type":"tuple","internalType":"struct Sprawl.Sig","components":[{"name":"r","type":"bytes32","internalType":"bytes32"},{"name":"s","type":"bytes32","internalType":"bytes32"},{"name":"v","type":"uint8","internalType":"uint8"}]}],"outputs":[],"stateMutability":"payable"},{"type":"function","name":"collectedArcs","inputs":[{"name":"","type":"bytes32","internalType":"bytes32"}],"outputs":[{"name":"owner","type":"address","internalType":"address"},{"name":"collectedAt","type":"uint64","internalType":"uint64"},{"name":"authoredAt","type":"uint64","internalType":"uint64"},{"name":"cleared","type":"bool","internalType":"bool"},{"name":"creator","type":"address","internalType":"address"},{"name":"contentPointer","type":"address","internalType":"address"},{"name":"anchorLinkId","type":"uint256","internalType":"uint256"},{"name":"price","type":"uint256","internalType":"uint256"},{"name":"arcIdHash","type":"bytes32","internalType":"bytes32"},{"name":"authorSig","type":"tuple","internalType":"struct Sprawl.Sig","components":[{"name":"r","type":"bytes32","internalType":"bytes32"},{"name":"s","type":"bytes32","internalType":"bytes32"},{"name":"v","type":"uint8","internalType":"uint8"}]},{"name":"operatorSig","type":"tuple","internalType":"struct Sprawl.Sig","components":[{"name":"r","type":"bytes32","internalType":"bytes32"},{"name":"s","type":"bytes32","internalType":"bytes32"},{"name":"v","type":"uint8","internalType":"uint8"}]}],"stateMutability":"view"},{"type":"function","name":"collectedEntities","inputs":[{"name":"","type":"bytes32","internalType":"bytes32"}],"outputs":[{"name":"owner","type":"address","internalType":"address"},{"name":"collectedAt","type":"uint64","internalType":"uint64"},{"name":"authoredAt","type":"uint64","internalType":"uint64"},{"name":"cleared","type":"bool","internalType":"bool"},{"name":"creator","type":"address","internalType":"address"},{"name":"contentPointer","type":"address","internalType":"address"},{"name":"price","type":"uint256","internalType":"uint256"},{"name":"entityIdHash","type":"bytes32","internalType":"bytes32"},{"name":"authorSig","type":"tuple","internalType":"struct Sprawl.Sig","components":[{"name":"r","type":"bytes32","internalType":"bytes32"},{"name":"s","type":"bytes32","internalType":"bytes32"},{"name":"v","type":"uint8","internalType":"uint8"}]},{"name":"operatorSig","type":"tuple","internalType":"struct Sprawl.Sig","components":[{"name":"r","type":"bytes32","internalType":"bytes32"},{"name":"s","type":"bytes32","internalType":"bytes32"},{"name":"v","type":"uint8","internalType":"uint8"}]}],"stateMutability":"view"},{"type":"function","name":"collectedLinks","inputs":[{"name":"","type":"uint256","internalType":"uint256"}],"outputs":[{"name":"owner","type":"address","internalType":"address"},{"name":"collectedAt","type":"uint64","internalType":"uint64"},{"name":"authoredAt","type":"uint64","internalType":"uint64"},{"name":"isRecap","type":"bool","internalType":"bool"},{"name":"cleared","type":"bool","internalType":"bool"},{"name":"creator","type":"address","internalType":"address"},{"name":"contentPointer","type":"address","internalType":"address"},{"name":"parentId","type":"uint256","internalType":"uint256"},{"name":"price","type":"uint256","internalType":"uint256"},{"name":"coversFromId","type":"uint256","internalType":"uint256"},{"name":"coversToId","type":"uint256","internalType":"uint256"},{"name":"authorSig","type":"tuple","internalType":"struct Sprawl.Sig","components":[{"name":"r","type":"bytes32","internalType":"bytes32"},{"name":"s","type":"bytes32","internalType":"bytes32"},{"name":"v","type":"uint8","internalType":"uint8"}]},{"name":"operatorSig","type":"tuple","internalType":"struct Sprawl.Sig","components":[{"name":"r","type":"bytes32","internalType":"bytes32"},{"name":"s","type":"bytes32","internalType":"bytes32"},{"name":"v","type":"uint8","internalType":"uint8"}]}],"stateMutability":"view"},{"type":"function","name":"completeOwnershipHandover","inputs":[{"name":"pendingOwner","type":"address","internalType":"address"}],"outputs":[],"stateMutability":"payable"},{"type":"function","name":"firstSalePrice","inputs":[],"outputs":[{"name":"","type":"uint256","internalType":"uint256"}],"stateMutability":"view"},{"type":"function","name":"list","inputs":[{"name":"kind","type":"uint8","internalType":"enum Sprawl.AssetKind"},{"name":"id","type":"bytes32","internalType":"bytes32"},{"name":"price","type":"uint256","internalType":"uint256"}],"outputs":[],"stateMutability":"nonpayable"},{"type":"function","name":"maxArcDescriptionBytes","inputs":[],"outputs":[{"name":"","type":"uint256","internalType":"uint256"}],"stateMutability":"pure"},{"type":"function","name":"maxArcIdBytes","inputs":[],"outputs":[{"name":"","type":"uint256","internalType":"uint256"}],"stateMutability":"pure"},{"type":"function","name":"maxEntityDescriptionBytes","inputs":[],"outputs":[{"name":"","type":"uint256","internalType":"uint256"}],"stateMutability":"pure"},{"type":"function","name":"maxEntityIdBytes","inputs":[],"outputs":[{"name":"","type":"uint256","internalType":"uint256"}],"stateMutability":"pure"},{"type":"function","name":"maxEntityNameBytes","inputs":[],"outputs":[{"name":"","type":"uint256","internalType":"uint256"}],"stateMutability":"pure"},{"type":"function","name":"maxLinkBytes","inputs":[],"outputs":[{"name":"","type":"uint256","internalType":"uint256"}],"stateMutability":"pure"},{"type":"function","name":"maxNameBytes","inputs":[],"outputs":[{"name":"","type":"uint256","internalType":"uint256"}],"stateMutability":"pure"},{"type":"function","name":"operator","inputs":[],"outputs":[{"name":"","type":"address","internalType":"address"}],"stateMutability":"view"},{"type":"function","name":"owner","inputs":[],"outputs":[{"name":"result","type":"address","internalType":"address"}],"stateMutability":"view"},{"type":"function","name":"ownerOf","inputs":[{"name":"kind","type":"uint8","internalType":"enum Sprawl.AssetKind"},{"name":"id","type":"bytes32","internalType":"bytes32"}],"outputs":[{"name":"","type":"address","internalType":"address"}],"stateMutability":"view"},{"type":"function","name":"ownershipHandoverExpiresAt","inputs":[{"name":"pendingOwner","type":"address","internalType":"address"}],"outputs":[{"name":"result","type":"uint256","internalType":"uint256"}],"stateMutability":"view"},{"type":"function","name":"paused","inputs":[],"outputs":[{"name":"","type":"bool","internalType":"bool"}],"stateMutability":"view"},{"type":"function","name":"pendingWithdrawals","inputs":[{"name":"","type":"address","internalType":"address"}],"outputs":[{"name":"","type":"uint256","internalType":"uint256"}],"stateMutability":"view"},{"type":"function","name":"priceOf","inputs":[{"name":"kind","type":"uint8","internalType":"enum Sprawl.AssetKind"},{"name":"id","type":"bytes32","internalType":"bytes32"}],"outputs":[{"name":"","type":"uint256","internalType":"uint256"}],"stateMutability":"view"},{"type":"function","name":"protocolBalance","inputs":[],"outputs":[{"name":"","type":"uint256","internalType":"uint256"}],"stateMutability":"view"},{"type":"function","name":"readArc","inputs":[{"name":"key","type":"bytes32","internalType":"bytes32"}],"outputs":[{"name":"v","type":"tuple","internalType":"struct Sprawl.ArcView","components":[{"name":"key","type":"bytes32","internalType":"bytes32"},{"name":"creator","type":"address","internalType":"address"},{"name":"owner","type":"address","internalType":"address"},{"name":"collectedAt","type":"uint256","internalType":"uint256"},{"name":"authoredAt","type":"uint256","internalType":"uint256"},{"name":"anchorLinkId","type":"uint256","internalType":"uint256"},{"name":"cleared","type":"bool","internalType":"bool"},{"name":"description","type":"bytes","internalType":"bytes"},{"name":"authorSignature","type":"bytes","internalType":"bytes"},{"name":"operatorSignature","type":"bytes","internalType":"bytes"},{"name":"price","type":"uint256","internalType":"uint256"}]}],"stateMutability":"view"},{"type":"function","name":"readEntity","inputs":[{"name":"key","type":"bytes32","internalType":"bytes32"}],"outputs":[{"name":"v","type":"tuple","internalType":"struct Sprawl.EntityView","components":[{"name":"key","type":"bytes32","internalType":"bytes32"},{"name":"creator","type":"address","internalType":"address"},{"name":"owner","type":"address","internalType":"address"},{"name":"collectedAt","type":"uint256","internalType":"uint256"},{"name":"authoredAt","type":"uint256","internalType":"uint256"},{"name":"cleared","type":"bool","internalType":"bool"},{"name":"content","type":"bytes","internalType":"bytes"},{"name":"authorSignature","type":"bytes","internalType":"bytes"},{"name":"operatorSignature","type":"bytes","internalType":"bytes"},{"name":"price","type":"uint256","internalType":"uint256"}]}],"stateMutability":"view"},{"type":"function","name":"readLink","inputs":[{"name":"linkId","type":"uint256","internalType":"uint256"}],"outputs":[{"name":"v","type":"tuple","internalType":"struct Sprawl.LinkView","components":[{"name":"linkId","type":"uint256","internalType":"uint256"},{"name":"creator","type":"address","internalType":"address"},{"name":"owner","type":"address","internalType":"address"},{"name":"collectedAt","type":"uint256","internalType":"uint256"},{"name":"authoredAt","type":"uint256","internalType":"uint256"},{"name":"parentId","type":"uint256","internalType":"uint256"},{"name":"isRecap","type":"bool","internalType":"bool"},{"name":"cleared","type":"bool","internalType":"bool"},{"name":"coversFromId","type":"uint256","internalType":"uint256"},{"name":"coversToId","type":"uint256","internalType":"uint256"},{"name":"text","type":"bytes","internalType":"bytes"},{"name":"authorSignature","type":"bytes","internalType":"bytes"},{"name":"operatorSignature","type":"bytes","internalType":"bytes"},{"name":"price","type":"uint256","internalType":"uint256"}]}],"stateMutability":"view"},{"type":"function","name":"register","inputs":[{"name":"name","type":"string","internalType":"string"}],"outputs":[],"stateMutability":"payable"},{"type":"function","name":"registrationFee","inputs":[],"outputs":[{"name":"","type":"uint256","internalType":"uint256"}],"stateMutability":"view"},{"type":"function","name":"renameCitizen","inputs":[{"name":"name","type":"string","internalType":"string"}],"outputs":[],"stateMutability":"nonpayable"},{"type":"function","name":"renounceOwnership","inputs":[],"outputs":[],"stateMutability":"payable"},{"type":"function","name":"requestOwnershipHandover","inputs":[],"outputs":[],"stateMutability":"payable"},{"type":"function","name":"setFirstSalePrice","inputs":[{"name":"price","type":"uint256","internalType":"uint256"}],"outputs":[],"stateMutability":"nonpayable"},{"type":"function","name":"setOperator","inputs":[{"name":"newOperator","type":"address","internalType":"address"}],"outputs":[],"stateMutability":"nonpayable"},{"type":"function","name":"setPaused","inputs":[{"name":"p","type":"bool","internalType":"bool"}],"outputs":[],"stateMutability":"nonpayable"},{"type":"function","name":"setRegistrationFee","inputs":[{"name":"fee","type":"uint256","internalType":"uint256"}],"outputs":[],"stateMutability":"nonpayable"},{"type":"function","name":"setTreasury","inputs":[{"name":"newTreasury","type":"address","internalType":"address"}],"outputs":[],"stateMutability":"nonpayable"},{"type":"function","name":"transferOwnership","inputs":[{"name":"newOwner","type":"address","internalType":"address"}],"outputs":[],"stateMutability":"payable"},{"type":"function","name":"treasury","inputs":[],"outputs":[{"name":"","type":"address","internalType":"address"}],"stateMutability":"view"},{"type":"function","name":"unbanCitizen","inputs":[{"name":"citizen","type":"address","internalType":"address"}],"outputs":[],"stateMutability":"nonpayable"},{"type":"function","name":"unlist","inputs":[{"name":"kind","type":"uint8","internalType":"enum Sprawl.AssetKind"},{"name":"id","type":"bytes32","internalType":"bytes32"}],"outputs":[],"stateMutability":"nonpayable"},{"type":"function","name":"withdraw","inputs":[],"outputs":[],"stateMutability":"nonpayable"},{"type":"function","name":"withdrawProtocol","inputs":[],"outputs":[],"stateMutability":"nonpayable"},{"type":"event","name":"ArcCleared","inputs":[{"name":"key","type":"bytes32","indexed":true,"internalType":"bytes32"}],"anonymous":false},{"type":"event","name":"ArcCollected","inputs":[{"name":"key","type":"bytes32","indexed":true,"internalType":"bytes32"},{"name":"arcId","type":"string","indexed":false,"internalType":"string"},{"name":"anchorLinkId","type":"uint256","indexed":true,"internalType":"uint256"},{"name":"creator","type":"address","indexed":false,"internalType":"address"},{"name":"collector","type":"address","indexed":false,"internalType":"address"},{"name":"price","type":"uint256","indexed":false,"internalType":"uint256"}],"anonymous":false},{"type":"event","name":"CitizenBanned","inputs":[{"name":"citizen","type":"address","indexed":true,"internalType":"address"}],"anonymous":false},{"type":"event","name":"CitizenRegistered","inputs":[{"name":"citizen","type":"address","indexed":true,"internalType":"address"},{"name":"name","type":"string","indexed":false,"internalType":"string"}],"anonymous":false},{"type":"event","name":"CitizenRenamed","inputs":[{"name":"citizen","type":"address","indexed":true,"internalType":"address"},{"name":"name","type":"string","indexed":false,"internalType":"string"}],"anonymous":false},{"type":"event","name":"CitizenUnbanned","inputs":[{"name":"citizen","type":"address","indexed":true,"internalType":"address"}],"anonymous":false},{"type":"event","name":"EntityCleared","inputs":[{"name":"key","type":"bytes32","indexed":true,"internalType":"bytes32"}],"anonymous":false},{"type":"event","name":"EntityCollected","inputs":[{"name":"key","type":"bytes32","indexed":true,"internalType":"bytes32"},{"name":"entityId","type":"string","indexed":false,"internalType":"string"},{"name":"creator","type":"address","indexed":true,"internalType":"address"},{"name":"collector","type":"address","indexed":true,"internalType":"address"},{"name":"price","type":"uint256","indexed":false,"internalType":"uint256"}],"anonymous":false},{"type":"event","name":"FirstSalePriceChanged","inputs":[{"name":"newPrice","type":"uint256","indexed":false,"internalType":"uint256"}],"anonymous":false},{"type":"event","name":"LinkCleared","inputs":[{"name":"linkId","type":"uint256","indexed":true,"internalType":"uint256"}],"anonymous":false},{"type":"event","name":"LinkCollected","inputs":[{"name":"linkId","type":"uint256","indexed":true,"internalType":"uint256"},{"name":"creator","type":"address","indexed":true,"internalType":"address"},{"name":"collector","type":"address","indexed":true,"internalType":"address"},{"name":"parentId","type":"uint256","indexed":false,"internalType":"uint256"},{"name":"isRecap","type":"bool","indexed":false,"internalType":"bool"},{"name":"coversFromId","type":"uint256","indexed":false,"internalType":"uint256"},{"name":"coversToId","type":"uint256","indexed":false,"internalType":"uint256"},{"name":"price","type":"uint256","indexed":false,"internalType":"uint256"}],"anonymous":false},{"type":"event","name":"Listed","inputs":[{"name":"kind","type":"uint8","indexed":true,"internalType":"enum Sprawl.AssetKind"},{"name":"id","type":"bytes32","indexed":true,"internalType":"bytes32"},{"name":"owner","type":"address","indexed":true,"internalType":"address"},{"name":"price","type":"uint256","indexed":false,"internalType":"uint256"}],"anonymous":false},{"type":"event","name":"OperatorChanged","inputs":[{"name":"oldOperator","type":"address","indexed":true,"internalType":"address"},{"name":"newOperator","type":"address","indexed":true,"internalType":"address"}],"anonymous":false},{"type":"event","name":"OwnershipHandoverCanceled","inputs":[{"name":"pendingOwner","type":"address","indexed":true,"internalType":"address"}],"anonymous":false},{"type":"event","name":"OwnershipHandoverRequested","inputs":[{"name":"pendingOwner","type":"address","indexed":true,"internalType":"address"}],"anonymous":false},{"type":"event","name":"OwnershipTransferred","inputs":[{"name":"oldOwner","type":"address","indexed":true,"internalType":"address"},{"name":"newOwner","type":"address","indexed":true,"internalType":"address"}],"anonymous":false},{"type":"event","name":"PausedChanged","inputs":[{"name":"paused","type":"bool","indexed":false,"internalType":"bool"}],"anonymous":false},{"type":"event","name":"ProtocolWithdrawn","inputs":[{"name":"treasury","type":"address","indexed":true,"internalType":"address"},{"name":"amount","type":"uint256","indexed":false,"internalType":"uint256"}],"anonymous":false},{"type":"event","name":"RegistrationFeeChanged","inputs":[{"name":"newFee","type":"uint256","indexed":false,"internalType":"uint256"}],"anonymous":false},{"type":"event","name":"Sold","inputs":[{"name":"kind","type":"uint8","indexed":true,"internalType":"enum Sprawl.AssetKind"},{"name":"id","type":"bytes32","indexed":true,"internalType":"bytes32"},{"name":"seller","type":"address","indexed":true,"internalType":"address"},{"name":"buyer","type":"address","indexed":false,"internalType":"address"},{"name":"price","type":"uint256","indexed":false,"internalType":"uint256"},{"name":"firstSale","type":"bool","indexed":false,"internalType":"bool"},{"name":"protocolCut","type":"uint256","indexed":false,"internalType":"uint256"},{"name":"sellerCut","type":"uint256","indexed":false,"internalType":"uint256"}],"anonymous":false},{"type":"event","name":"TreasuryChanged","inputs":[{"name":"newTreasury","type":"address","indexed":true,"internalType":"address"}],"anonymous":false},{"type":"event","name":"Unlisted","inputs":[{"name":"kind","type":"uint8","indexed":true,"internalType":"enum Sprawl.AssetKind"},{"name":"id","type":"bytes32","indexed":true,"internalType":"bytes32"},{"name":"owner","type":"address","indexed":true,"internalType":"address"}],"anonymous":false},{"type":"event","name":"Withdrawn","inputs":[{"name":"recipient","type":"address","indexed":true,"internalType":"address"},{"name":"amount","type":"uint256","indexed":false,"internalType":"uint256"}],"anonymous":false},{"type":"error","name":"AlreadyCollected","inputs":[]},{"type":"error","name":"AlreadyInitialized","inputs":[]},{"type":"error","name":"AlreadyRegistered","inputs":[]},{"type":"error","name":"AnchorLinkNotCollected","inputs":[]},{"type":"error","name":"ArcDescriptionEmpty","inputs":[]},{"type":"error","name":"ArcDescriptionTooLong","inputs":[{"name":"maxBytes","type":"uint256","internalType":"uint256"},{"name":"actualBytes","type":"uint256","internalType":"uint256"}]},{"type":"error","name":"ArcIdEmpty","inputs":[]},{"type":"error","name":"ArcIdTooLong","inputs":[{"name":"maxBytes","type":"uint256","internalType":"uint256"},{"name":"actualBytes","type":"uint256","internalType":"uint256"}]},{"type":"error","name":"AssetDoesNotExist","inputs":[]},{"type":"error","name":"BadAuthorSig","inputs":[]},{"type":"error","name":"BadOperatorSig","inputs":[]},{"type":"error","name":"Banned","inputs":[{"name":"citizen","type":"address","internalType":"address"}]},{"type":"error","name":"CannotBuyOwnAsset","inputs":[]},{"type":"error","name":"EntityDescriptionTooLong","inputs":[{"name":"maxBytes","type":"uint256","internalType":"uint256"},{"name":"actualBytes","type":"uint256","internalType":"uint256"}]},{"type":"error","name":"EntityIdEmpty","inputs":[]},{"type":"error","name":"EntityIdTooLong","inputs":[{"name":"maxBytes","type":"uint256","internalType":"uint256"},{"name":"actualBytes","type":"uint256","internalType":"uint256"}]},{"type":"error","name":"EntityNameEmpty","inputs":[]},{"type":"error","name":"EntityNameTooLong","inputs":[{"name":"maxBytes","type":"uint256","internalType":"uint256"},{"name":"actualBytes","type":"uint256","internalType":"uint256"}]},{"type":"error","name":"IncorrectPayment","inputs":[{"name":"required","type":"uint256","internalType":"uint256"},{"name":"sent","type":"uint256","internalType":"uint256"}]},{"type":"error","name":"InsufficientPayment","inputs":[{"name":"required","type":"uint256","internalType":"uint256"},{"name":"sent","type":"uint256","internalType":"uint256"}]},{"type":"error","name":"InvalidEntityType","inputs":[{"name":"entityType","type":"string","internalType":"string"}]},{"type":"error","name":"InvalidPrice","inputs":[]},{"type":"error","name":"InvalidRecapRange","inputs":[]},{"type":"error","name":"NameEmpty","inputs":[]},{"type":"error","name":"NameTooLong","inputs":[{"name":"maxBytes","type":"uint256","internalType":"uint256"},{"name":"actualBytes","type":"uint256","internalType":"uint256"}]},{"type":"error","name":"NewOwnerIsZeroAddress","inputs":[]},{"type":"error","name":"NoHandoverRequest","inputs":[]},{"type":"error","name":"NotAssetOwner","inputs":[]},{"type":"error","name":"NotBanned","inputs":[{"name":"citizen","type":"address","internalType":"address"}]},{"type":"error","name":"NotCitizen","inputs":[]},{"type":"error","name":"NotForSale","inputs":[]},{"type":"error","name":"NothingToWithdraw","inputs":[]},{"type":"error","name":"Paused","inputs":[]},{"type":"error","name":"PriceMismatch","inputs":[{"name":"onchainPrice","type":"uint256","internalType":"uint256"},{"name":"expectedPrice","type":"uint256","internalType":"uint256"}]},{"type":"error","name":"Reentrancy","inputs":[]},{"type":"error","name":"SSTORE2Failed","inputs":[]},{"type":"error","name":"TextEmpty","inputs":[]},{"type":"error","name":"TextTooLong","inputs":[{"name":"maxBytes","type":"uint256","internalType":"uint256"},{"name":"actualBytes","type":"uint256","internalType":"uint256"}]},{"type":"error","name":"Unauthorized","inputs":[]},{"type":"error","name":"ZeroAddress","inputs":[]}],"bytecode":{"object":"0x60c034620001ca576001600160401b0390601f620048b438819003918201601f19168301919084831184841017620001a5578160609285926040958652833981010312620001ca5781516020830151928201516001600160a01b038116939190849003620001ca578315620001b95733638b78c6d81955335f7f8be0079c531659141344cd1fd0a4f28419497f9722a3daafe3b4186f6b6457e08180a360055560065560018060a01b031982816001541617600155339060095416176009554660a052600660208251620000d381620001ce565b828152016514dc1c985ddb60d21b81522090600160208251620000f681620001ce565b82815201603160f81b8152209080519160208301937f8b73c3c69bb8fe3d512ecc4cf759cc79239f7b179b0ffacaa9a75d522b39400f85528284015260608301524660808301523060a083015260a0825260c082019482861090861117620001a5578490525190206080525f7fd58299b712891143e76310d5e664c4203c940a67db37cf856bdaa3c5c76a802c8180a36146c99081620001eb823960805181614254015260a0518161412d0152f35b634e487b7160e01b5f52604160045260245ffd5b825163d92e233d60e01b8152600490fd5b5f80fd5b604081019081106001600160401b03821117620001a55760405256fe60806040526004361015610011575f80fd5b5f3560e01c80630566659b14610355578063061612dd146103505780630bbfcb231461034b57806314c44e091461034657806316c38b3c146103415780631cf9bb451461033c578063256929621461033757806334a95c74146103325780633644e5151461032d57806339558f6f146103285780633ccfd60b146103235780633cd45df11461031e5780633e153d73146103195780634bc4cd3b1461026f57806354d1f13d14610314578063570ca7351461030f57806357a12c6d1461030a5780635c975abb146103055780635cd2d79c146102fb5780635d2bf2e7146103005780635d852c63146102fb57806361d027b3146102f657806361e98db8146102f15780636b80d0ad146102ec5780636c6456ef146102e7578063715018a6146102e25780637502da2d146102dd5780637bbf796c146102d85780637c433b5c146102d35780637dc66475146102ce5780638d66adb9146102c95780638da5cb5b146102c45780639f6ac24a146102bf578063a744aec3146102ba578063b3ab15fb146102b5578063b6e8315d146102b0578063c320c727146102ab578063cc8d259d146102a6578063cf279bda146102a1578063d204390b1461026f578063d4f910a71461029c578063de1f542814610297578063f04e283e14610292578063f0f442601461028d578063f2c298be14610288578063f2fde38b14610283578063f390950c1461027e578063f3f4370314610279578063f525679f14610274578063f72a02401461026f578063fea369961461026a578063fee81cf4146102655763ff4c2a2214610260575f80fd5b6124a6565b612474565b6123c5565b610c5c565b612263565b6121a3565b612063565b611f7f565b611dd2565b611d6a565b611d1d565b611c66565b611b65565b611aa1565b611a22565b6119d6565b611957565b6118c0565b6118a4565b611815565b6117eb565b61176a565b61174d565b611715565b611680565b611501565b611408565b6111f9565b61102d565b610e34565b610e0e565b610da6565b610dc2565b610d84565b610ce1565b610cbb565b610c77565b610c40565b610c19565b610b61565b610ace565b610aac565b6109fe565b6109b5565b61091a565b6107e2565b6107c5565b6106f4565b610494565b610390565b60043590600382101561036957565b5f80fd5b606090600319011261036957600435600381101561036957906024359060443590565b346103695761039e3661036d565b916103b06103ac83836139e3565b1590565b61046a578215610441576001600160a01b036103cc8383613a4e565b163303610417576103de838383613b19565b6103e7816124c1565b60405192835233927f7b171936290a75c7e5772e23d99c365d23bb92d2b92756454e7f87178977027890602090a4005b60046040517f7d387f39000000000000000000000000000000000000000000000000000000008152fd5b60046040517ebfc921000000000000000000000000000000000000000000000000000000008152fd5b60046040517f67fa94e7000000000000000000000000000000000000000000000000000000008152fd5b61049d3661036d565b9068929eee149b4bd2126892308454146106a4573084556104c16103ac83836139e3565b61046a576104cf8282613a4e565b6001600160a01b0381169333851461067a576104eb8484613b61565b9081156106505780820361061857508034036105db5790816105d361053b6105337f03e2f1894515f5bb047c3632ec6fe861c659d9cbf3b86e14cc37322f9b04b91d956124df565b612710900490565b9261058a6105498585612512565b91610555338a8a613bc3565b61055f8989613ab4565b61057361056e8760085461251f565b600855565b6001600160a01b03165f52600a60205260405f2090565b61059582825461251f565b90556105a0866124c1565b6040519384933385909493926080926001600160a01b0360a084019716835260208301525f604083015260608201520152565b0390a4389055005b6040517f0d35e9210000000000000000000000000000000000000000000000000000000081526004810191909152346024820152604490fd5b0390fd5b6040517f3ad7771a00000000000000000000000000000000000000000000000000000000815260048101929092526024820152604490fd5b60046040517f1d99ddbf000000000000000000000000000000000000000000000000000000008152fd5b60046040517f624f4e9e000000000000000000000000000000000000000000000000000000008152fd5b63ab143c065f526004601cfd5b600435906001600160a01b038216820361036957565b61010435906001600160a01b038216820361036957565b60e435906001600160a01b038216820361036957565b346103695760203660031901126103695761070d6106b1565b610715613c40565b6001600160a01b03811690815f525f602052600160405f200190815460ff81161561079b5760081c60ff166107785750805461ff0019166101001790557fd4109ee9ba65faca26bdaf00c0ae67438eabe820bcd52da2d8651aa23d6ec7865f80a2005b604051631868ef8960e11b81526001600160a01b03919091166004820152602490fd5b60046040517f62d07c3a000000000000000000000000000000000000000000000000000000008152fd5b34610369575f366003190112610369576020600554604051908152f35b34610369576020366003190112610369576004358015158091036103695760207fd83d5281277e107f080e362699d46082adb74e7dc6a9bccbc87d8ae9533add449161082c613c40565b60ff196007541660ff821617600755604051908152a1005b9181601f840112156103695782359167ffffffffffffffff8311610369576020838186019501011161036957565b6064359067ffffffffffffffff8216820361036957565b6084359067ffffffffffffffff8216820361036957565b60a4359067ffffffffffffffff8216820361036957565b60c4359067ffffffffffffffff8216820361036957565b6060906101431901126103695761014490565b6060906101a3190112610369576101a490565b6060906101031901126103695761010490565b6060906101631901126103695761016490565b6101a03660031901126103695767ffffffffffffffff60043581811161036957610948903690600401610844565b909160443590811161036957610962903690600401610844565b61096a610872565b610972610889565b9061097b6108a0565b9260c435946001600160a01b03861686036103695760603660e3190112610369576109b3976109a9366108ce565b976024359161252c565b005b5f3660031901126103695763389a75e1600c52335f526202a30042016020600c2055337fdbf36a107da19e49527a7176a1babf963b4b0ff8cde35ee35d6cd8f1f9ac7e1d5f80a2005b34610369575f36600319011261036957610a16613c40565b68929eee149b4bd21268308154146106a4573081556008548015610a82575f6008557f329e24eecddd526f689268053e0cf1820ec2f66754f4e02dfb3ecf8876a2093460206001600160a01b03610a7184826009541661410f565b6009541692604051908152a2389055005b60046040517fd0d04f60000000000000000000000000000000000000000000000000000000008152fd5b34610369575f366003190112610369576020610ac661412b565b604051908152f35b3461036957604036600319011261036957610ae761035a565b602435610af481836139e3565b1561046a576001600160a01b03610b0b8284613a4e565b16330361041757610b1c8183613ab4565b6003821015610b4d5733917f083ec879fd94281aff02e5aedb0f961cfc9a4fc400c60795112a7e8c2acb2c405f80a4005b634e487b7160e01b5f52602160045260245ffd5b34610369575f3660031901126103695768929eee149b4bd21268308154146106a457308155335f52600a60205260405f20548015610a8257335f52600a6020525f6040812055610bb1813361410f565b6040519081527f7084f5476618d8e60b11ef0d7d3f06914655adb8793e28ff7f018d4c76d505d560203392a2389055005b6080906003190112610369576004356001600160a01b03811681036103695790602435600381101561036957906044359060643590565b34610369576020610c35610c2c36610be2565b92919091612c70565b60ff60405191168152f35b34610369575f3660031901126103695760206040516103e88152f35b34610369575f36600319011261036957602060405160408152f35b5f3660031901126103695763389a75e1600c52335f525f6020600c2055337ffa7b8eab7da67f412cc9575ed43464468f9bfbae89d1675917346ca6d8fe3c925f80a2005b34610369575f3660031901126103695760206001600160a01b0360015416604051908152f35b34610369576020366003190112610369576001600160a01b03610d026106b1565b610d0a613c40565b16805f525f602052600160405f2001805460ff8160081c1615610d545761ff00191690557faac851b840a2349f6b28a972eb5a9acf7187275017fe43b508117de48671b99f5f80a2005b602483604051907e54d3f60000000000000000000000000000000000000000000000000000000082526004820152fd5b34610369575f36600319011261036957602060ff600754166040519015158152f35b34610369575f3660031901126103695760206040516101f48152f35b34610369576020366003190112610369577f9010872122a9edbcda49bc3395bcba3072d28816218204e93ca1c10e89d9b28d6020600435610e01613c40565b80600655604051908152a1005b34610369575f3660031901126103695760206001600160a01b0360095416604051908152f35b34610369575f366003190112610369576020600854604051908152f35b634e487b7160e01b5f52604160045260245ffd5b6060810190811067ffffffffffffffff821117610e8157604052565b610e51565b6040810190811067ffffffffffffffff821117610e8157604052565b60c0810190811067ffffffffffffffff821117610e8157604052565b90601f8019910116810190811067ffffffffffffffff821117610e8157604052565b6040519060a0820182811067ffffffffffffffff821117610e8157604052565b60405190610160820182811067ffffffffffffffff821117610e8157604052565b604051906101a0820182811067ffffffffffffffff821117610e8157604052565b60405190610140820182811067ffffffffffffffff821117610e8157604052565b90604051610f7081610e65565b604060ff600283958054855260018101546020860152015416910152565b9561016097929b9a98939161100d9661102b9b966101c08a019e6001600160a01b0395868095168c5267ffffffffffffffff80921660208d01521660408b0152151560608a01521660808801521660a086015260c085015260e084015261010083019060ff604080928051855260208101516020860152015116910152565b019060ff604080928051855260208101516020860152015116910152565b565b34610369576020366003190112610369576004355f52600360205260405f2080546110c76001600160a01b0367ffffffffffffffff9360018101549161107d60028301546001600160a01b031690565b6003830154906004840154926110a1600861109a60058801610f63565b9601610f63565b95604051998a99838360481c16938260ff8560401c169416928260a01c1691168b610f8e565b0390f35b5f5b8381106110dc5750505f910152565b81810151838201526020016110cd565b90602091611105815180928185528580860191016110cb565b601f01601f1916010190565b60208082528251828201528201516001600160a01b0316604082015260408201516001600160a01b0316606082015260608201516080820152608082015160a082015260a082015160c082015261117160c083015160e083019015159052565b60e0820151611187610100918284019015159052565b820151610120908183015282015161014090818301528201516101c0906111f06111be6101609284848701526101e08601906110ec565b918501516111db601f1993610180928588830301848901526110ec565b908601516101a09386830301848701526110ec565b93015191015290565b3461036957602036600319011261036957600435611215612cb8565b611227825f52600260205260405f2090565b9161123c60028401546001600160a01b031690565b926001600160a01b03918285161561046a576110c7946112e160ff6004956112fc948852600186015490611281818360501c1660208b01906001600160a01b03169052565b61129b875491821660408b01906001600160a01b03169052565b67ffffffffffffffff809160a01c1660608a015281166080890152600386015460a08901526112d4828260401c1660c08a019015159052565b60481c16151560e0870152565b60058301546101008601526006830154610120860152614276565b610140840152600781015460088201549061136361131e600985015460ff1690565b6040519384936020850191926041937fff00000000000000000000000000000000000000000000000000000000000000928452602084015260f81b1660408201520190565b0390611377601f1992838101835282610ebe565b6101608501526113ee600a83015491600b840154926113e261139d600c87015460ff1690565b6040519586936020850191926041937fff00000000000000000000000000000000000000000000000000000000000000928452602084015260f81b1660408201520190565b03908101835282610ebe565b61018084015201546101a082015260405191829182611111565b5f3660031901126103695761141b613c40565b5f638b78c6d8198181547f8be0079c531659141344cd1fd0a4f28419497f9722a3daafe3b4186f6b6457e08280a355005b60208082528251828201528201516001600160a01b0316604082015260408201516001600160a01b0316606082015260608201516080820152608082015160a082015260a082015160c08201526114ac60c083015160e083019015159052565b60e0820151610160906111f06114cf6101009284848701526101808601906110ec565b918501516114ec601f1993610120928588830301848901526110ec565b908601516101409386830301848701526110ec565b346103695760203660031901126103695760043561151d612d33565b61152f825f52600460205260405f2090565b9161154460028401546001600160a01b031690565b926001600160a01b03918285161561046a576110c7946115d760ff6004956115dc948852600186015490611589818360481c1660208b01906001600160a01b03169052565b6115a3875491821660408b01906001600160a01b03169052565b67ffffffffffffffff809160a01c1660608a015281166080890152600386015460a089015260401c1660c087019015159052565b614276565b60e084015260068101546007820154906115fd61131e600885015460ff1690565b0390611611601f1992838101835282610ebe565b610100850152611637600983015491600a840154926113e261139d600b87015460ff1690565b61012084015201546101408201526040519182918261144c565b6020600319820112610369576004359067ffffffffffffffff82116103695761167c91600401610844565b9091565b346103695761168e36611651565b335f525f60205260405f20600181015460ff81161561079b5760081c60ff166116fd57816116ea81856116f8946116e57f4e219f4364d482c8e0912ddb640323d3efe691f1f4fd367f04a2b33c1b3a7d8a97614325565b612de8565b604051918291339583612eb1565b0390a2005b604051631868ef8960e11b8152336004820152602490fd5b346103695760403660031901126103695761172e61035a565b6024359061173c82826139e3565b1561046a57602091610ac691613b61565b34610369575f366003190112610369576020600654604051908152f35b3461036957602036600319011261036957600435611786613c40565b805f52600260205260405f206001600160a01b036002820154161561046a57600101805469ff000000000000000000191669010000000000000000001790557f5ff6649befaa1265b4131e82bbe82d08e08099c18f9024c9b79404be9a1b757c5f80a2005b34610369575f366003190112610369576020638b78c6d819546001600160a01b0360405191168152f35b6102003660031901126103695767ffffffffffffffff60443581811681036103695761183f610872565b90611848610889565b9160a4359182151583036103695761185e6106c7565b610124359586116103695761187a6109b3963690600401610844565b939092611886366108ce565b95611890366108e1565b9760e4359360c43593602435600435612ec5565b34610369576020610c356118b736610be2565b929190916133a6565b34610369576020366003190112610369576118d96106b1565b6118e1613c40565b6001600160a01b0380911690811561192d57600154826001600160a01b0319821617600155167fd58299b712891143e76310d5e664c4203c940a67db37cf856bdaa3c5c76a802c5f80a3005b60046040517fd92e233d000000000000000000000000000000000000000000000000000000008152fd5b3461036957602036600319011261036957600435611973613c40565b805f52600460205260405f206001600160a01b036002820154161561046a57600101805468ff00000000000000001916680100000000000000001790557f5c0778355e098542751abb04c284fd1c8f7930c94394b3822fa0c8e40da277b55f80a2005b34610369576020366003190112610369577ffd29c2cd5dc77cf2bad34e3b80ec2592a7c16d32869ccaee99f95af250db954a6020600435611a15613c40565b80600555604051908152a1005b3461036957602036600319011261036957600435611a3e613c40565b805f52600360205260405f206001600160a01b036002820154161561046a57600101805468ff00000000000000001916680100000000000000001790557fb92b6dd0ac94b82808fe4512d13a59fe82492e4ecf77d5acaf69dfad38042ad85f80a2005b3461036957604036600319011261036957611aba61035a565b60243590611ac882826139e3565b1561046a57602091611ad991613a4e565b6001600160a01b0360405191168152f35b90600182811c92168015611b18575b6020831014611b0457565b634e487b7160e01b5f52602260045260245ffd5b91607f1691611af9565b9363ffffffff90608094611b4a67ffffffffffffffff9599989460a0895260a08901906110ec565b98151560208801521515604087015216606085015216910152565b3461036957602080600319360112610369576001600160a01b03611b876106b1565b165f525f815260405f2060405180925f908354611ba381611aea565b80855290600190818116908115611c475750600114611c04575b84600187611bcd83880384610ebe565b0154906110c760405192839267ffffffffffffffff8260301c169163ffffffff8160101c169160ff808360081c1692169086611b22565b5f8681528381209695945091905b818310611c2f57509394509192509082010181611bcd6001611bbd565b86548884018501529586019587945091830191611c12565b60ff1916848701525050151560051b830101905081611bcd6001611bbd565b6101c03660031901126103695767ffffffffffffffff60043581811161036957611c94903690600401610844565b60243583811161036957611cac903690600401610844565b60443585811161036957611cc4903690600401610844565b60643596871161036957611cdf6109b3973690600401610844565b90611ce8610889565b92611cf16108a0565b94611cfa6108b7565b96611d036106de565b98611d0d366108f4565b9a611d1736610907565b9c613400565b602036600319011261036957611d316106b1565b611d39613c40565b63389a75e1600c52805f526020600c209081544211611d5d575f6109b392556142ec565b636f5e88185f526004601cfd5b34610369576020366003190112610369576001600160a01b03611d8b6106b1565b611d93613c40565b16801561192d57806001600160a01b031960095416176009557fc714d22a2f08b695f81e7c707058db484aa5b4d6b4c9fd64beb10fe85832f6085f80a2005b611ddb36611651565b68929eee149b4bd2126891308354146106a45730835560075460ff16611f5557611e226001611e1a336001600160a01b03165f525f60205260405f2090565b015460ff1690565b611f2b57611e2f82614325565b60055491823410611ef357907f106c826edcad7be8b769067aebb234b0e19866d19c9ebe48e6f61e994b9e03aa611ece611ed79493611ebf611e6f610ee0565b611e7a368488612940565b8152600160208201525f6040820181905260608201524267ffffffffffffffff166080820152611eba336001600160a01b03165f525f60205260405f2090565b6137e7565b6116ea61056e8660085461251f565b0390a234612512565b80611ee3575b50389055005b611eed903361410f565b5f611edd565b6040517fb99e2ab700000000000000000000000000000000000000000000000000000000815260048101849052346024820152604490fd5b60046040517f3a81d6fc000000000000000000000000000000000000000000000000000000008152fd5b60046040517f9e87fac8000000000000000000000000000000000000000000000000000000008152fd5b602036600319011261036957611f936106b1565b611f9b613c40565b8060601b15611fad576109b3906142ec565b637448fbae5f526004601cfd5b60208082528251828201528201516001600160a01b0316604082015260408201516001600160a01b0316606082015260608201516080820152608082015160a082015261201060a083015160c083019015159052565b60c082015161202d610140918260e08501526101608401906110ec565b6111f060e085015161204e601f1993610100928588830301848901526110ec565b908601516101209386830301848701526110ec565b346103695760203660031901126103695760043561207f613984565b612091825f52600360205260405f2090565b916120a660028401546001600160a01b031690565b926001600160a01b03918285161561046a576110c7946115d760ff60039561212f9488526001860154906120eb818360481c1660208b01906001600160a01b03169052565b612105875491821660408b01906001600160a01b03169052565b67ffffffffffffffff809160a01c1660608a01528116608089015260401c1660a087019015159052565b60c0840152600581015460068201549061215061131e600785015460ff1690565b0390612164601f1992838101835282610ebe565b60e08501526121896008830154916009840154926113e261139d600a87015460ff1690565b610100840152015461012082015260405191829182611fba565b34610369576020366003190112610369576001600160a01b036121c46106b1565b165f52600a602052602060405f2054604051908152f35b96919b9a98939561018098939161102b9b9661100d986101e08b019f6001600160a01b0395868095168d528c602067ffffffffffffffff8094169101521660408c0152151560608b01521660808901521660a087015260c086015260e085015261010084015261012083019060ff604080928051855260208101516020860152015116910152565b34610369576020366003190112610369576004355f52600460205260405f2080546110c76001600160a01b0367ffffffffffffffff936001810154916122b360028301546001600160a01b031690565b60038301546004840154916005850154936122dc60096122d560068901610f63565b9701610f63565b966040519a8b9a838360481c16938260ff8560401c169416928260a01c1691168c6121db565b9a989694929d9c9b9997959391909d6102208c019e6001600160a01b03168c5267ffffffffffffffff80921660208d01521660408b0152151560608a01526080890161234e9115159052565b6001600160a01b031660a08801526001600160a01b031660c087015260e0860152610100850152610120840152610140830152805161016083015260208101516101808301526040015160ff166101a08201526101c00161102b9160ff604080928051855260208101516020860152015116910152565b34610369576020366003190112610369576004355f52600260205260405f208054906110c76001600160a01b0367ffffffffffffffff9260018101549461241660028301546001600160a01b031690565b6003830154600484015490600585015492600686015494612445600a61243e60078a01610f63565b9801610f63565b976040519b8c9b828260501c16938d60ff8460481c16948360ff8660401c169516938360a01c16921690612302565b346103695760203660031901126103695761248d6106b1565b63389a75e1600c525f52602080600c2054604051908152f35b34610369575f36600319011261036957602060405160808152f35b60031115610b4d57565b634e487b7160e01b5f52601160045260245ffd5b906109c4918281029281840414901517156124f657565b6124cb565b90611d4c918281029281840414901517156124f657565b919082039182116124f657565b919082018092116124f657565b9598909392979491969768929eee149b4bd2126899308b54146106a457308b5560075460ff16611f555761259b9961256387613c5c565b61256c86613ccf565b6001600160a01b036125a96002612584368b8e612940565b602081519101209d8e5f52600460205260405f2090565b01546001600160a01b031690565b166128fa576006548034036105db57506125df6125d3600261259b8d5f52600260205260405f2090565b6001600160a01b031690565b156128d0576126b2866126c1936126aa8d61269c8d8f976126178f8d9a612607913691612940565b602081519101209736908d612940565b60208151910120958d604051978896602088019a8b9590979692936001600160a01b039460e0969361010089019a7fe3d3599a4e379ac7b3a050dce600904177b9442e42acba6c03e27bae2595e9eb8a5260208a01526040890152606088015267ffffffffffffffff928380921660808901521660a08701521660c085015216910152565b03601f198101835282610ebe565b519020613d45565b6126bc8982613db3565b613e9e565b60016126dd876001600160a01b03165f525f60205260405f2090565b0193845460ff81161561079b5760081c60ff166128af57936127da612825946127bd8c9a989561279461273f61273a61280b987ffeeca3faa0dfb69f2f3daa3cb6bc5d3079bb522155d24d98cdf048fdf48e07669e9c3691612940565b613f31565b61276f61274a610f00565b338152954267ffffffffffffffff16602088015267ffffffffffffffff166040870152565b5f60608601526001600160a01b038b1660808601526001600160a01b031660a0850152565b8c60c08401525f60e08401528b6101008401526127b036612981565b61012084015236906129bc565b6101408201526127d58a5f52600460205260405f2090565b6129f3565b80546127ee9060101c63ffffffff16612c05565b65ffffffff000082549160101b169065ffffffff00001916179055565b61281534846140b2565b6040519384933492339286612c3a565b0390a3612834610533346124fb565b9060027f03e2f1894515f5bb047c3632ec6fe861c659d9cbf3b86e14cc37322f9b04b91d6128a761287061286a610533346124fb565b34612512565b6040519182913097343385909493926080926001600160a01b0360a084019716835260208301526001604083015260608201520152565b0390a4389055565b604051631868ef8960e11b81526001600160a01b0388166004820152602490fd5b60046040517f9f5277f6000000000000000000000000000000000000000000000000000000008152fd5b60046040517f8d0399cc000000000000000000000000000000000000000000000000000000008152fd5b67ffffffffffffffff8111610e8157601f01601f191660200190565b92919261294c82612924565b9161295a6040519384610ebe565b829481845281830111610369578281602093845f960137010152565b60ff81160361036957565b60609060e3190112610369576040519061299a82610e65565b60e4358252610104356020830152610124356040836129b883612976565b0152565b9190826060910312610369576040516129d481610e65565b604080829480358452602081013560208501520135916129b883612976565b600961014061102b93612a2c612a1082516001600160a01b031690565b85906001600160a01b03166001600160a01b0319825416179055565b612a91612a44602083015167ffffffffffffffff1690565b85547fffffffff0000000000000000ffffffffffffffffffffffffffffffffffffffff1660a09190911b7bffffffffffffffff000000000000000000000000000000000000000016178555565b612b5560018501612ace612ab0604085015167ffffffffffffffff1690565b825467ffffffffffffffff191667ffffffffffffffff909116178255565b612b02612ade6060850151151590565b825468ff0000000000000000191690151560401b68ff000000000000000016178255565b608083015181547fffffff0000000000000000000000000000000000000000ffffffffffffffffff1660489190911b7cffffffffffffffffffffffffffffffffffffffff00000000000000000016179055565b612b8b612b6c60a08301516001600160a01b031690565b60028601906001600160a01b03166001600160a01b0319825416179055565b60c0810151600385015560e081015160048501556101008101516005850155612bdc610120820151600686016040600260ff928451815560208501516001820155019201511660ff19825416179055565b015191016040600260ff928451815560208501516001820155019201511660ff19825416179055565b90600163ffffffff809316019182116124f657565b908060209392818452848401375f828201840152601f01601f1916010190565b9160609391612c559197969597608085526080850191612c1a565b956001600160a01b0380921660208401521660408201520152565b91612c7b81836139e3565b15612caf57612c8991613a4e565b6001600160a01b03918216911603612ca95715612ca4575f90565b600390565b50600290565b50505050600190565b604051906101c0820182811067ffffffffffffffff821117610e81576040525f6101a0838281528260208201528260408201528260608201528260808201528260a08201528260c08201528260e082015282610100820152826101208201526060610140820152606061016082015260606101808201520152565b60405190610160820182811067ffffffffffffffff821117610e81576040525f610140838281528260208201528260408201528260608201528260808201528260a08201528260c0820152606060e0820152606061010082015260606101208201520152565b601f8211612da657505050565b5f5260205f20906020601f840160051c83019310612dde575b601f0160051c01905b818110612dd3575050565b5f8155600101612dc8565b9091508190612dbf565b90929167ffffffffffffffff8111610e8157612e0e81612e088454611aea565b84612d99565b5f601f8211600114612e4c578190612e3d9394955f92612e41575b50508160011b915f199060031b1c19161790565b9055565b013590505f80612e29565b601f19821694612e5f845f5260205f2090565b915f5b878110612e99575083600195969710612e80575b505050811b019055565b01355f19600384901b60f8161c191690555f8080612e76565b90926020600181928686013581550194019101612e62565b916020612ec2938181520191612c1a565b90565b9a929b939b999498909596979968929eee149b4bd212689c8d309054146106a457308e5560075460ff16611f55576001600160a01b03612f1360028f61259b905f52600260205260405f2090565b166128fa57612f2187614398565b8a8061323b575b613211576006548034036105db57508b6126bc868f613003908f8f8f8f908f9a8f9a6126aa948f96938f9461300a9f93612f698f959761269c983691612940565b60208151910120956040519a8b9960208b019d8e9692946101409894919b9a99956001600160a01b0397936101608a019d7f3a7952a418bed7b6ebc56cd57fe019a5c13a72d9efe152870f7ff852f4caa3b58b5260208b015260408a015267ffffffffffffffff928380921660608b01521660808901521660a0870152151560c086015260e0850152610100840152166101208201520152565b9283613e59565b60016130268b6001600160a01b03165f525f60205260405f2090565b0194855460ff81161561079b5760081c60ff166131f05760406131376131999661312a8f9c9a978f978f61310a7fcf6382e92332a7b10006db65cd3b18e3714e535882af385b256d5f82ac9eaeb59f8f92819f9b9c6130e46130fa926131549f61273a6127da9f91613099923691612940565b9481156131e857965b81156131dd576130db90985b6130b6610f21565b3381529e8f4267ffffffffffffffff166020820152019067ffffffffffffffff169052565b151560608d0152565b5f60808c01526001600160a01b031660a08b0152565b6001600160a01b031660c0890152565b8a60e08801525f61010088015261012087015261014086015236906129bc565b61016084015236906129bc565b61018082015261314f8a5f52600260205260405f2090565b613244565b61315e34896140b2565b6040519384936001600160a01b03339a16983493869192608093969594919660a0840197845215156020840152604083015260608201520152565b0390a46131a8610533346124fb565b905f7f03e2f1894515f5bb047c3632ec6fe861c659d9cbf3b86e14cc37322f9b04b91d6128a761287061286a610533346124fb565b506130db5f986130ae565b505f966130a2565b604051631868ef8960e11b81526001600160a01b038c166004820152602490fd5b60046040517f22fe427c000000000000000000000000000000000000000000000000000000008152fd5b50898911612f28565b600a61018061102b93613261612a1082516001600160a01b031690565b613279612a44602083015167ffffffffffffffff1690565b61333260018501613298612ab0604085015167ffffffffffffffff1690565b6132a8612ade6060850151151590565b6132de6132b86080850151151590565b825469ff000000000000000000191690151560481b69ff00000000000000000016178255565b60a083015181547fffff0000000000000000000000000000000000000000ffffffffffffffffffff1660509190911b7dffffffffffffffffffffffffffffffffffffffff0000000000000000000016179055565b613349612b6c60c08301516001600160a01b031690565b60e08101516003850155610100810151600485015561012081015160058501556101408101516006850155612bdc610160820151600786016040600260ff928451815560208501516001820155019201511660ff19825416179055565b9190916133b382846139e3565b15612caf576133c28284613a4e565b6001600160a01b039081169116146133f8576133dd91613b61565b80156133f157036133ec575f90565b600490565b5050600390565b505050600290565b989b949197969390999c959268929eee149b4bd212689d8e309054146106a457308f5560075460ff16611f55576134368c61440e565b61343f82614481565b61344984846144f4565b61345286614605565b61345d368d8d612940565b805190602001209d6134778f5f52600360205260405f2090565b600201546001600160a01b03166128fa576006548034036105db57508d6126bc898f8f8f8f8f9761269c8f938f9b8f938f958f986135779f6134de8f96996134de6126aa9b6130039f6134ed966134cf913691612940565b602081519101209e3691612940565b60208151910120993691612940565b60208151910120604051988997602089019b8c96919361010096936001600160a01b0396929a99956101208a019b7f0c64c8303a9df3dc12e6fdc81735ae1757108ec09668c0b9ce2d2cf5d0ee2e9d8b5260208b015260408a01526060890152608088015267ffffffffffffffff928380921660a08901521660c08701521660e085015216910152565b60016135938d6001600160a01b03165f525f60205260405f2090565b0198895460ff81161561079b5760081c60ff166136f85761368f966136528f9c99938f906135fb61273a7fa4ae009b914dbc9fed2d49c53f50dbd2b99626abd83c0e080d7433bb289d91289f9b6136b39f9a9b6127da9c6136729b613642966136659b61464b565b9161362c613607610f42565b338152994267ffffffffffffffff1660208c015267ffffffffffffffff1660408b0152565b5f60608a01526001600160a01b03166080890152565b6001600160a01b031660a0870152565b5f60c08601528b60e086015236906129bc565b61010084015236906129bc565b61012082015261368a885f52600360205260405f2090565b613719565b61369934876140b2565b6040519182916001600160a01b03339816963491846137ca565b0390a46136c2610533346124fb565b9060017f03e2f1894515f5bb047c3632ec6fe861c659d9cbf3b86e14cc37322f9b04b91d6128a761287061286a610533346124fb565b604051631868ef8960e11b81526001600160a01b038e166004820152602490fd5b600861012061102b93613736612a1082516001600160a01b031690565b61374e612a44602083015167ffffffffffffffff1690565b61376d60018501612ace612ab0604085015167ffffffffffffffff1690565b613784612b6c60a08301516001600160a01b031690565b60c0810151600385015560e08101516004850155612bdc610100820151600586016040600260ff928451815560208501516001820155019201511660ff19825416179055565b9392916020916137e291604087526040870191612c1a565b930152565b9190805192835167ffffffffffffffff8111610e815761380b81612e088454611aea565b602080601f831160011461390d57506138d5926138478360809460019461102b999a5f926139025750508160011b915f199060031b1c19161790565b81555b019261386e61385c6020830151151590565b859060ff801983541691151516179055565b61389461387e6040830151151590565b855461ff00191690151560081b61ff0016178555565b6138c66138a8606083015163ffffffff1690565b855465ffffffff0000191660109190911b65ffffffff000016178555565b015167ffffffffffffffff1690565b6dffffffffffffffff00000000000082549160301b16906dffffffffffffffff0000000000001916179055565b015190505f80612e29565b90601f19831696613921855f5260205f2090565b925f905b89821061396c575050836001936138d59693859360809761102b9b9c10613954575b505050811b01815561384a565b01515f1960f88460031b161c191690555f8080613947565b80600185968294968601518155019501930190613925565b60405190610140820182811067ffffffffffffffff821117610e81576040525f610120838281528260208201528260408201528260608201528260808201528260a0820152606060c0820152606060e082015260606101008201520152565b6001600160a01b03916002916139f8816124c1565b8015613a3b5780613a0a6001926124c1565b14613a2957613a21905f52600460205260405f2090565b015416151590565b613a21905f52600360205260405f2090565b50613a21905f52600260205260405f2090565b906003821015610b4d57816001600160a01b039215613aa15780613a736001926124c1565b14613a8f57613a8a905f52600460205260405f2090565b541690565b613a8a905f52600360205260405f2090565b50613a8a905f52600260205260405f2090565b906003821015610b4d575f9180613ade5750613ada6004915f52600260205260405f2090565b0155565b80613aea6001926124c1565b148214613b0557613ada6003915f52600360205260405f2090565b613ada6004915f52600460205260405f2090565b6003811015610b4d5780613b3c5750613ada6004915f52600260205260405f2090565b80613b486001926124c1565b03613b0557613ada6003915f52600360205260405f2090565b6003811015610b4d578015613bae5780613b7c6001926124c1565b14613b9a57613b956004915f52600460205260405f2090565b015490565b613b956003915f52600360205260405f2090565b50613b956004915f52600260205260405f2090565b9190916003811015610b4d5780613c055750613bea61102b925f52600260205260405f2090565b906001600160a01b03166001600160a01b0319825416179055565b80613c116001926124c1565b03613c2b57613bea61102b925f52600360205260405f2090565b613bea61102b925f52600460205260405f2090565b638b78c6d819543303613c4f57565b6382b429005f526004601cfd5b8015613ca55760408111613c6d5750565b604490604051907f525ca00a000000000000000000000000000000000000000000000000000000008252604060048301526024820152fd5b60046040517f44581010000000000000000000000000000000000000000000000000000000008152fd5b8015613d1b576101f490818111613ce4575050565b60449250604051917fd6c0e7c900000000000000000000000000000000000000000000000000000000835260048301526024820152fd5b60046040517f10fa9079000000000000000000000000000000000000000000000000000000008152fd5b613d4d61412b565b906040519060208201927f1901000000000000000000000000000000000000000000000000000000000000845260228301526042820152604281526080810181811067ffffffffffffffff821117610e815760405251902090565b6040513d5f823e3d90fd5b5f6020916101243590613dc582612976565b6040805191825260ff909216602082015260e4359181019190915261010435606082015280608081015b838052039060015afa15613e54576001600160a01b03805f5116908115928315613e47575b505050613e1d57565b60046040517ff97ceb1f000000000000000000000000000000000000000000000000000000008152fd5b16141590505f8080613e14565b613da8565b5f9060209293613def604082013591613e7183612976565b60405193849387830135923591859094939260ff6060936080840197845216602083015260408201520152565b5f90602092613eb5604082013591613e7183612976565b838052039060015afa15613e54576001600160a01b03805f51168015918215613f0b575b5050613ee157565b60046040517f2e53e0ff000000000000000000000000000000000000000000000000000000008152fd5b60015416141590505f80613ed9565b90613f2d602092828151948592016110cb565b0190565b805190600182018092116124f65761407261269c916040519283917fffff00000000000000000000000000000000000000000000000000000000000060208401967f6100000000000000000000000000000000000000000000000000000000000000885260f01b1660218401527f800000000000000000000000000000000000000000000000000000000000000060238401527f600c00000000000000000000000000000000000000000000000000000000000060248401527f60000000000000000000000000000000000000000000000000000000000000008060268501527f3900000000000000000000000000000000000000000000000000000000000000602885015260298401527ff300000000000000000000000000000000000000000000000000000000000000602b8401525f602c840152602d830190613f1a565b51905ff0906001600160a01b0382161561408857565b60046040517f0e95af7f000000000000000000000000000000000000000000000000000000008152fd5b611d4c8083029083820414831517156124f6576127109004908183039283116124f6576008549182018092116124f657614100916008556001600160a01b03165f52600a60205260405f2090565b80549182018092116124f65755565b5f80809338935af11561411e57565b63b12d13eb5f526004601cfd5b7f00000000000000000000000000000000000000000000000000000000000000004614614252577f53707261776c0000000000000000000000000000000000000000000000000000602060405161418181610e86565b6006815201527f310000000000000000000000000000000000000000000000000000000000000060206040516141b681610e86565b60018152015260405160208101907f8b73c3c69bb8fe3d512ecc4cf759cc79239f7b179b0ffacaa9a75d522b39400f82527f2b54e062446f61e5fa74031d745203166ecf9d5c674d965392fcdee3e497156c60408201527fc89efdaa54c0f20c7adf612882df0950f5a951637e0307cdcb4c672f298b8bc660608201524660808201523060a082015260a0815261424c81610ea2565b51902090565b7f000000000000000000000000000000000000000000000000000000000000000090565b90813b60018111156142c2575f1981019081116124f657600161429882612924565b6142a56040519182610ebe565b8281526142b183612924565b602082019190601f1901368337943c565b5090506040516020810181811067ffffffffffffffff821117610e81576040525f81525f36813790565b6001600160a01b0316638b78c6d8198181547f8be0079c531659141344cd1fd0a4f28419497f9722a3daafe3b4186f6b6457e05f80a355565b801561436e57604081116143365750565b604490604051907f243cf1c9000000000000000000000000000000000000000000000000000000008252604060048301526024820152fd5b60046040517f1ff3ed9d000000000000000000000000000000000000000000000000000000008152fd5b80156143e4576103e8908181116143ad575050565b60449250604051917ff4eb2b2d00000000000000000000000000000000000000000000000000000000835260048301526024820152fd5b60046040517fbd6225f2000000000000000000000000000000000000000000000000000000008152fd5b8015614457576040811161441f5750565b604490604051907fcefeba30000000000000000000000000000000000000000000000000000000008252604060048301526024820152fd5b60046040517fddf5af50000000000000000000000000000000000000000000000000000000008152fd5b80156144ca57608081116144925750565b604490604051907f16ca7836000000000000000000000000000000000000000000000000000000008252608060048301526024820152fd5b60046040517ffc7425dd000000000000000000000000000000000000000000000000000000008152fd5b90614500368284612940565b602081519101207f19fb305eaffa7d605205d1255f24d4c4af6edd09577aafc7ab1244189727440581141590816145da575b816145af575b81614584575b50614547575050565b6106146040519283927f77c218a0000000000000000000000000000000000000000000000000000000008452602060048501526024840191612c1a565b7fa30d69e43099d8b4ea596246f71c10a8b994728d6d2232389b5b640bc04caa4d915014155f61453e565b7f2d93a03b41cfdab0910781c9b59cc5c3f63ea2f176db0a51d498fca9ba19a2e78114159150614538565b7fe8129c019b45159b88c8e6c0617c2393de2243e782f46184949ef2c37f63dac98114159150614532565b6101f490818111614614575050565b60449250604051917fb4e1828300000000000000000000000000000000000000000000000000000000835260048301526024820152fd5b919385602294612ec29697939781896040519a8b9860208a01378701915f6020840152602183013701915f602184015285830137015f83820152036002810184520182610ebe56fea2646970667358221220f5a6fc40ab755fdbe630d68b6e4229e4103db0bc570e9ebac4c7ef86985e087e64736f6c63430008180033","linkReferences":{}},"methodIdentifiers":{"DOMAIN_SEPARATOR()":"3644e515","banCitizen(address)":"0bbfcb23","buy(uint8,bytes32,uint256)":"061612dd","canBuy(address,uint8,bytes32,uint256)":"a744aec3","canList(address,uint8,bytes32,uint256)":"3cd45df1","cancelOwnershipHandover()":"54d1f13d","citizens(address)":"d4f910a7","clearArc(bytes32)":"b6e8315d","clearEntity(bytes32)":"cc8d259d","clearLink(uint256)":"8d66adb9","collectArc(string,uint256,string,uint64,uint64,uint64,address,(bytes32,bytes32,uint8),(bytes32,bytes32,uint8))":"1cf9bb45","collectEntity(string,string,string,string,uint64,uint64,uint64,address,(bytes32,bytes32,uint8),(bytes32,bytes32,uint8))":"de1f5428","collectLink(uint256,uint256,uint64,uint64,uint64,bool,uint256,uint256,address,bytes,(bytes32,bytes32,uint8),(bytes32,bytes32,uint8))":"9f6ac24a","collectedArcs(bytes32)":"f525679f","collectedEntities(bytes32)":"6b80d0ad","collectedLinks(uint256)":"fea36996","completeOwnershipHandover(address)":"f04e283e","firstSalePrice()":"7dc66475","list(uint8,bytes32,uint256)":"0566659b","maxArcDescriptionBytes()":"5d852c63","maxArcIdBytes()":"4bc4cd3b","maxEntityDescriptionBytes()":"5cd2d79c","maxEntityIdBytes()":"d204390b","maxEntityNameBytes()":"ff4c2a22","maxLinkBytes()":"3e153d73","maxNameBytes()":"f72a0240","operator()":"570ca735","owner()":"8da5cb5b","ownerOf(uint8,bytes32)":"cf279bda","ownershipHandoverExpiresAt(address)":"fee81cf4","paused()":"5c975abb","pendingWithdrawals(address)":"f3f43703","priceOf(uint8,bytes32)":"7c433b5c","protocolBalance()":"61e98db8","readArc(bytes32)":"7502da2d","readEntity(bytes32)":"f390950c","readLink(uint256)":"6c6456ef","register(string)":"f2c298be","registrationFee()":"14c44e09","renameCitizen(string)":"7bbf796c","renounceOwnership()":"715018a6","requestOwnershipHandover()":"25692962","setFirstSalePrice(uint256)":"5d2bf2e7","setOperator(address)":"b3ab15fb","setPaused(bool)":"16c38b3c","setRegistrationFee(uint256)":"c320c727","setTreasury(address)":"f0f44260","transferOwnership(address)":"f2fde38b","treasury()":"61d027b3","unbanCitizen(address)":"57a12c6d","unlist(uint8,bytes32)":"39558f6f","withdraw()":"3ccfd60b","withdrawProtocol()":"34a95c74"},"id":22}